{
  "_format": "hh-sol-artifact-1",
  "contractName": "OpenSurveyRewardVault",
  "sourceName": "contracts/Vault.sol",
  "abi": [
    {
      "inputs": [
        {
          "internalType": "string",
          "name": "_surveyId",
          "type": "string"
        },
        {
          "internalType": "address",
          "name": "_factory",
          "type": "address"
        }
      ],
      "stateMutability": "nonpayable",
      "type": "constructor"
    },
    {
      "inputs": [],
      "name": "AlreadyClaimed",
      "type": "error"
    },
    {
      "inputs": [],
      "name": "AmountMustBeGreaterThanZero",
      "type": "error"
    },
    {
      "inputs": [],
      "name": "InvalidFactory",
      "type": "error"
    },
    {
      "inputs": [],
      "name": "InvalidProof",
      "type": "error"
    },
    {
      "inputs": [],
      "name": "NotFactory",
      "type": "error"
    },
    {
      "inputs": [
        {
          "internalType": "address",
          "name": "token",
          "type": "address"
        }
      ],
      "name": "SafeERC20FailedOperation",
      "type": "error"
    },
    {
      "anonymous": false,
      "inputs": [
        {
          "indexed": true,
          "internalType": "address",
          "name": "user",
          "type": "address"
        },
        {
          "indexed": true,
          "internalType": "address",
          "name": "token",
          "type": "address"
        },
        {
          "indexed": false,
          "internalType": "uint256",
          "name": "amount",
          "type": "uint256"
        }
      ],
      "name": "Claimed",
      "type": "event"
    },
    {
      "anonymous": false,
      "inputs": [
        {
          "indexed": true,
          "internalType": "address",
          "name": "from",
          "type": "address"
        },
        {
          "indexed": true,
          "internalType": "address",
          "name": "token",
          "type": "address"
        },
        {
          "indexed": false,
          "internalType": "uint256",
          "name": "amount",
          "type": "uint256"
        }
      ],
      "name": "Funded",
      "type": "event"
    },
    {
      "anonymous": false,
      "inputs": [
        {
          "indexed": true,
          "internalType": "address",
          "name": "token",
          "type": "address"
        },
        {
          "indexed": true,
          "internalType": "bytes32",
          "name": "newRoot",
          "type": "bytes32"
        }
      ],
      "name": "MerkleRootUpdated",
      "type": "event"
    },
    {
      "inputs": [
        {
          "internalType": "address",
          "name": "token",
          "type": "address"
        },
        {
          "internalType": "uint256",
          "name": "totalEntitled",
          "type": "uint256"
        },
        {
          "internalType": "bytes32[]",
          "name": "proof",
          "type": "bytes32[]"
        }
      ],
      "name": "claim",
      "outputs": [],
      "stateMutability": "nonpayable",
      "type": "function"
    },
    {
      "inputs": [
        {
          "internalType": "address",
          "name": "",
          "type": "address"
        },
        {
          "internalType": "address",
          "name": "",
          "type": "address"
        }
      ],
      "name": "claimedPerToken",
      "outputs": [
        {
          "internalType": "uint256",
          "name": "",
          "type": "uint256"
        }
      ],
      "stateMutability": "view",
      "type": "function"
    },
    {
      "inputs": [],
      "name": "factory",
      "outputs": [
        {
          "internalType": "address",
          "name": "",
          "type": "address"
        }
      ],
      "stateMutability": "view",
      "type": "function"
    },
    {
      "inputs": [
        {
          "internalType": "address",
          "name": "token",
          "type": "address"
        },
        {
          "internalType": "uint256",
          "name": "amount",
          "type": "uint256"
        }
      ],
      "name": "fund",
      "outputs": [],
      "stateMutability": "nonpayable",
      "type": "function"
    },
    {
      "inputs": [
        {
          "internalType": "address",
          "name": "user",
          "type": "address"
        },
        {
          "internalType": "address",
          "name": "token",
          "type": "address"
        },
        {
          "internalType": "uint256",
          "name": "totalEntitled",
          "type": "uint256"
        }
      ],
      "name": "getClaimable",
      "outputs": [
        {
          "internalType": "uint256",
          "name": "",
          "type": "uint256"
        }
      ],
      "stateMutability": "view",
      "type": "function"
    },
    {
      "inputs": [
        {
          "internalType": "address",
          "name": "",
          "type": "address"
        }
      ],
      "name": "merkleRootPerToken",
      "outputs": [
        {
          "internalType": "bytes32",
          "name": "",
          "type": "bytes32"
        }
      ],
      "stateMutability": "view",
      "type": "function"
    },
    {
      "inputs": [
        {
          "internalType": "address",
          "name": "token",
          "type": "address"
        },
        {
          "internalType": "bytes32",
          "name": "newRoot",
          "type": "bytes32"
        }
      ],
      "name": "setMerkleRoot",
      "outputs": [],
      "stateMutability": "nonpayable",
      "type": "function"
    },
    {
      "inputs": [],
      "name": "surveyId",
      "outputs": [
        {
          "internalType": "string",
          "name": "",
          "type": "string"
        }
      ],
      "stateMutability": "view",
      "type": "function"
    }
  ],
  "bytecode": "0x60a060405234801561001057600080fd5b50604051610bcb380380610bcb83398101604081905261002f916100a7565b6001600160a01b03811661005657604051637a44db9560e01b815260040160405180910390fd5b6000610062838261020d565b506001600160a01b0316608052506102cb565b634e487b7160e01b600052604160045260246000fd5b80516001600160a01b03811681146100a257600080fd5b919050565b600080604083850312156100ba57600080fd5b82516001600160401b038111156100d057600080fd5b8301601f810185136100e157600080fd5b80516001600160401b038111156100fa576100fa610075565b604051601f8201601f19908116603f011681016001600160401b038111828210171561012857610128610075565b60405281815282820160200187101561014057600080fd5b60005b8281101561015f57602081850181015183830182015201610143565b5060006020838301015280945050505061017b6020840161008b565b90509250929050565b600181811c9082168061019857607f821691505b6020821081036101b857634e487b7160e01b600052602260045260246000fd5b50919050565b601f82111561020857806000526020600020601f840160051c810160208510156101e55750805b601f840160051c820191505b8181101561020557600081556001016101f1565b50505b505050565b81516001600160401b0381111561022657610226610075565b61023a816102348454610184565b846101be565b6020601f82116001811461026e57600083156102565750848201515b600019600385901b1c1916600184901b178455610205565b600084815260208120601f198516915b8281101561029e578785015182556020948501946001909201910161027e565b50848210156102bc5786840151600019600387901b60f8161c191681555b50505050600190811b01905550565b6080516108de6102ed60003960008181610131015261042701526108de6000f3fe608060405234801561001057600080fd5b50600436106100885760003560e01c8063a65cc5591161005b578063a65cc5591461010c578063c45a01551461012c578063f2e0bf1e1461016b578063fc42de481461017e57600080fd5b8063236b06911461008d5780632f801284146100ab5780633d13f874146100e45780637b1837de146100f9575b600080fd5b610095610191565b6040516100a2919061068b565b60405180910390f35b6100d66100b93660046106f5565b600260209081526000928352604080842090915290825290205481565b6040519081526020016100a2565b6100f76100f2366004610728565b61021f565b005b6100f76101073660046107b5565b6103a2565b6100d661011a3660046107df565b60016020526000908152604090205481565b6101537f000000000000000000000000000000000000000000000000000000000000000081565b6040516001600160a01b0390911681526020016100a2565b6100f76101793660046107b5565b61041c565b6100d661018c3660046107fa565b6104ac565b6000805461019e90610837565b80601f01602080910402602001604051908101604052809291908181526020018280546101ca90610837565b80156102175780601f106101ec57610100808354040283529160200191610217565b820191906000526020600020905b8154815290600101906020018083116101fa57829003601f168201915b505050505081565b6040805133602082018190529181018590526000906060016040516020818303038152906040528051906020012090506102a384848080602002602001604051908101604052809392919081815260200183836020028082843760009201829052506001600160a01b038c1681526001602052604090205492508591506104e69050565b6102c0576040516309bde33960e01b815260040160405180910390fd5b6001600160a01b038083166000908152600260209081526040808320938a168352929052205480861161030657604051630c8d9eab60e31b815260040160405180910390fd5b60006103128288610871565b6001600160a01b038086166000908152600260209081526040808320938d1680845293909152902089905590915061034b9085836104fc565b876001600160a01b0316846001600160a01b03167ff7a40077ff7a04c7e61f6f26fb13774259ddf1b6bce9ecf26a8276cdd39926838360405161039091815260200190565b60405180910390a35050505050505050565b806000036103c357604051635e85ae7360e01b815260040160405180910390fd5b6103d86001600160a01b038316333084610560565b6040518181526001600160a01b0383169033907f3b5083eec1a1116c56de5d6841cff8efc6a0aec9850e836ec509d6ce024ea5619060200160405180910390a35050565b336001600160a01b037f0000000000000000000000000000000000000000000000000000000000000000161461046557604051631966391b60e11b815260040160405180910390fd5b6001600160a01b038216600081815260016020526040808220849055518392917f2d3b238aa223af835b06f5ddeb56c45951f7cf4a29ab728434765ef33cb7598f91a35050565b6001600160a01b0380841660009081526002602090815260408083209386168352929052908120546104de9083610871565b949350505050565b6000826104f3858461059f565b14949350505050565b6040516001600160a01b0383811660248301526044820183905261055b91859182169063a9059cbb906064015b604051602081830303815290604052915060e01b6020820180516001600160e01b0383818316178352505050506105e4565b505050565b6040516001600160a01b0384811660248301528381166044830152606482018390526105999186918216906323b872dd90608401610529565b50505050565b600081815b84518110156105da576105d0828683815181106105c3576105c3610892565b6020026020010151610659565b91506001016105a4565b5090505b92915050565b600080602060008451602086016000885af180610607576040513d6000823e3d81fd5b50506000513d9150811561061f57806001141561062c565b6001600160a01b0384163b155b1561059957604051635274afe760e01b81526001600160a01b038516600482015260240160405180910390fd5b6000818310610675576000828152602084905260409020610684565b60008381526020839052604090205b9392505050565b602081526000825180602084015260005b818110156106b9576020818601810151604086840101520161069c565b506000604082850101526040601f19601f83011684010191505092915050565b80356001600160a01b03811681146106f057600080fd5b919050565b6000806040838503121561070857600080fd5b610711836106d9565b915061071f602084016106d9565b90509250929050565b6000806000806060858703121561073e57600080fd5b610747856106d9565b935060208501359250604085013567ffffffffffffffff81111561076a57600080fd5b8501601f8101871361077b57600080fd5b803567ffffffffffffffff81111561079257600080fd5b8760208260051b84010111156107a757600080fd5b949793965060200194505050565b600080604083850312156107c857600080fd5b6107d1836106d9565b946020939093013593505050565b6000602082840312156107f157600080fd5b610684826106d9565b60008060006060848603121561080f57600080fd5b610818846106d9565b9250610826602085016106d9565b929592945050506040919091013590565b600181811c9082168061084b57607f821691505b60208210810361086b57634e487b7160e01b600052602260045260246000fd5b50919050565b818103818111156105de57634e487b7160e01b600052601160045260246000fd5b634e487b7160e01b600052603260045260246000fdfea2646970667358221220928708c2e473bb1426c82e1dac7e2195582379c174186fa099499f0f172b2c4064736f6c634300081c0033",
  "linkReferences": {},
  "deployedLinkReferences": {}
}