{
  "_format": "hh-sol-artifact-1",
  "contractName": "OpenSurveyVaultFactory",
  "sourceName": "contracts/Factory.sol",
  "abi": [
    {
      "inputs": [
        {
          "internalType": "address",
          "name": "owner",
          "type": "address"
        }
      ],
      "name": "OwnableInvalidOwner",
      "type": "error"
    },
    {
      "inputs": [
        {
          "internalType": "address",
          "name": "account",
          "type": "address"
        }
      ],
      "name": "OwnableUnauthorizedAccount",
      "type": "error"
    },
    {
      "inputs": [],
      "name": "VaultAlreadyExists",
      "type": "error"
    },
    {
      "anonymous": false,
      "inputs": [
        {
          "indexed": true,
          "internalType": "address",
          "name": "previousOwner",
          "type": "address"
        },
        {
          "indexed": true,
          "internalType": "address",
          "name": "newOwner",
          "type": "address"
        }
      ],
      "name": "OwnershipTransferred",
      "type": "event"
    },
    {
      "anonymous": false,
      "inputs": [
        {
          "indexed": true,
          "internalType": "uint256",
          "name": "surveyId",
          "type": "uint256"
        },
        {
          "indexed": false,
          "internalType": "address",
          "name": "vault",
          "type": "address"
        }
      ],
      "name": "VaultCreated",
      "type": "event"
    },
    {
      "inputs": [
        {
          "internalType": "uint256",
          "name": "surveyId",
          "type": "uint256"
        }
      ],
      "name": "createVault",
      "outputs": [],
      "stateMutability": "nonpayable",
      "type": "function"
    },
    {
      "inputs": [
        {
          "internalType": "uint256",
          "name": "surveyId",
          "type": "uint256"
        }
      ],
      "name": "getVault",
      "outputs": [
        {
          "internalType": "address",
          "name": "",
          "type": "address"
        }
      ],
      "stateMutability": "view",
      "type": "function"
    },
    {
      "inputs": [],
      "name": "owner",
      "outputs": [
        {
          "internalType": "address",
          "name": "",
          "type": "address"
        }
      ],
      "stateMutability": "view",
      "type": "function"
    },
    {
      "inputs": [],
      "name": "renounceOwnership",
      "outputs": [],
      "stateMutability": "nonpayable",
      "type": "function"
    },
    {
      "inputs": [
        {
          "internalType": "uint256",
          "name": "surveyId",
          "type": "uint256"
        },
        {
          "internalType": "address",
          "name": "token",
          "type": "address"
        },
        {
          "internalType": "bytes32",
          "name": "newRoot",
          "type": "bytes32"
        }
      ],
      "name": "setVaultMerkleRoot",
      "outputs": [],
      "stateMutability": "nonpayable",
      "type": "function"
    },
    {
      "inputs": [
        {
          "internalType": "address",
          "name": "newOwner",
          "type": "address"
        }
      ],
      "name": "transferOwnership",
      "outputs": [],
      "stateMutability": "nonpayable",
      "type": "function"
    },
    {
      "inputs": [
        {
          "internalType": "uint256",
          "name": "",
          "type": "uint256"
        }
      ],
      "name": "vaults",
      "outputs": [
        {
          "internalType": "address",
          "name": "",
          "type": "address"
        }
      ],
      "stateMutability": "view",
      "type": "function"
    }
  ],
  "bytecode": "0x6080604052348015600f57600080fd5b503380603557604051631e4fbdf760e01b81526000600482015260240160405180910390fd5b603c816041565b506091565b600080546001600160a01b038381166001600160a01b0319831681178455604051919092169283917f8be0079c531659141344cd1fd0a4f28419497f9722a3daafe3b4186f6b6457e09190a35050565b610cf8806100a06000396000f3fe608060405234801561001057600080fd5b506004361061007d5760003560e01c80638da5cb5b1161005b5780638da5cb5b146100e45780639403b634146100f55780639abbdf4b1461011e578063f2fde38b1461013157600080fd5b80630cba4ed314610082578063715018a6146100975780638c64ea4a1461009f575b600080fd5b6100956100903660046103a7565b610144565b005b6100956101c4565b6100c86100ad3660046103dc565b6001602052600090815260409020546001600160a01b031681565b6040516001600160a01b03909116815260200160405180910390f35b6000546001600160a01b03166100c8565b6100c86101033660046103dc565b6000908152600160205260409020546001600160a01b031690565b61009561012c3660046103dc565b6101d8565b61009561013f3660046103f5565b6102be565b61014c610301565b600083815260016020526040908190205490516379705f8f60e11b81526001600160a01b038481166004830152602482018490529091169063f2e0bf1e90604401600060405180830381600087803b1580156101a757600080fd5b505af11580156101bb573d6000803e3d6000fd5b50505050505050565b6101cc610301565b6101d6600061032e565b565b6101e0610301565b6000818152600160205260409020546001600160a01b031615610216576040516304aabf3360e01b815260040160405180910390fd5b600081306040516102269061037e565b9182526001600160a01b03166020820152604001604051809103906000f080158015610256573d6000803e3d6000fd5b5060008381526001602090815260409182902080546001600160a01b0319166001600160a01b038516908117909155915191825291925083917fbf3e9c93de94306b70ac5b9411edf475545815333bf651b894b9eada6482c594910160405180910390a25050565b6102c6610301565b6001600160a01b0381166102f557604051631e4fbdf760e01b8152600060048201526024015b60405180910390fd5b6102fe8161032e565b50565b6000546001600160a01b031633146101d65760405163118cdaa760e01b81523360048201526024016102ec565b600080546001600160a01b038381166001600160a01b0319831681178455604051919092169283917f8be0079c531659141344cd1fd0a4f28419497f9722a3daafe3b4186f6b6457e09190a35050565b6108ab8061041883390190565b80356001600160a01b03811681146103a257600080fd5b919050565b6000806000606084860312156103bc57600080fd5b833592506103cc6020850161038b565b9150604084013590509250925092565b6000602082840312156103ee57600080fd5b5035919050565b60006020828403121561040757600080fd5b6104108261038b565b939250505056fe60c060405234801561001057600080fd5b506040516108ab3803806108ab83398101604081905261002f9161006d565b6001600160a01b03811661005657604051637a44db9560e01b815260040160405180910390fd5b60a0919091526001600160a01b03166080526100aa565b6000806040838503121561008057600080fd5b825160208401519092506001600160a01b038116811461009f57600080fd5b809150509250929050565b60805160a0516107d66100d56000396000609201526000818161013f01526103a701526107d66000f3fe608060405234801561001057600080fd5b50600436106100885760003560e01c8063a65cc5591161005b578063a65cc5591461011a578063c45a01551461013a578063f2e0bf1e14610179578063fc42de481461018c57600080fd5b8063236b06911461008d5780632f801284146100c75780633d13f874146100f25780637b1837de14610107575b600080fd5b6100b47f000000000000000000000000000000000000000000000000000000000000000081565b6040519081526020015b60405180910390f35b6100b46100d5366004610627565b600160209081526000928352604080842090915290825290205481565b61010561010036600461065a565b61019f565b005b6101056101153660046106e7565b610322565b6100b4610128366004610711565b60006020819052908152604090205481565b6101617f000000000000000000000000000000000000000000000000000000000000000081565b6040516001600160a01b0390911681526020016100be565b6101056101873660046106e7565b61039c565b6100b461019a36600461072c565b61042c565b60408051336020820181905291810185905260009060600160405160208183030381529060405280519060200120905061022384848080602002602001604051908101604052809392919081815260200183836020028082843760009201829052506001600160a01b038c1681526020819052604090205492508591506104669050565b610240576040516309bde33960e01b815260040160405180910390fd5b6001600160a01b038083166000908152600160209081526040808320938a168352929052205480861161028657604051630c8d9eab60e31b815260040160405180910390fd5b60006102928288610769565b6001600160a01b038086166000908152600160209081526040808320938d168084529390915290208990559091506102cb90858361047c565b876001600160a01b0316846001600160a01b03167ff7a40077ff7a04c7e61f6f26fb13774259ddf1b6bce9ecf26a8276cdd39926838360405161031091815260200190565b60405180910390a35050505050505050565b8060000361034357604051635e85ae7360e01b815260040160405180910390fd5b6103586001600160a01b0383163330846104e0565b6040518181526001600160a01b0383169033907f3b5083eec1a1116c56de5d6841cff8efc6a0aec9850e836ec509d6ce024ea5619060200160405180910390a35050565b336001600160a01b037f000000000000000000000000000000000000000000000000000000000000000016146103e557604051631966391b60e11b815260040160405180910390fd5b6001600160a01b038216600081815260208190526040808220849055518392917f2d3b238aa223af835b06f5ddeb56c45951f7cf4a29ab728434765ef33cb7598f91a35050565b6001600160a01b03808416600090815260016020908152604080832093861683529290529081205461045e9083610769565b949350505050565b600082610473858461051f565b14949350505050565b6040516001600160a01b038381166024830152604482018390526104db91859182169063a9059cbb906064015b604051602081830303815290604052915060e01b6020820180516001600160e01b038381831617835250505050610564565b505050565b6040516001600160a01b0384811660248301528381166044830152606482018390526105199186918216906323b872dd906084016104a9565b50505050565b600081815b845181101561055a57610550828683815181106105435761054361078a565b60200260200101516105d9565b9150600101610524565b5090505b92915050565b600080602060008451602086016000885af180610587576040513d6000823e3d81fd5b50506000513d9150811561059f5780600114156105ac565b6001600160a01b0384163b155b1561051957604051635274afe760e01b81526001600160a01b038516600482015260240160405180910390fd5b60008183106105f5576000828152602084905260409020610604565b60008381526020839052604090205b9392505050565b80356001600160a01b038116811461062257600080fd5b919050565b6000806040838503121561063a57600080fd5b6106438361060b565b91506106516020840161060b565b90509250929050565b6000806000806060858703121561067057600080fd5b6106798561060b565b935060208501359250604085013567ffffffffffffffff81111561069c57600080fd5b8501601f810187136106ad57600080fd5b803567ffffffffffffffff8111156106c457600080fd5b8760208260051b84010111156106d957600080fd5b949793965060200194505050565b600080604083850312156106fa57600080fd5b6107038361060b565b946020939093013593505050565b60006020828403121561072357600080fd5b6106048261060b565b60008060006060848603121561074157600080fd5b61074a8461060b565b92506107586020850161060b565b929592945050506040919091013590565b8181038181111561055e57634e487b7160e01b600052601160045260246000fd5b634e487b7160e01b600052603260045260246000fdfea26469706673582212202825091cb9f6897eb20b890166d9bb249fc4e172e61a06a4c8f106e4724761a464736f6c634300081c0033a2646970667358221220bc699bd61424587e254d26de1e98e8858b1bc0213e13ede3a1ee17279a048e0d64736f6c634300081c0033",
  "linkReferences": {},
  "deployedLinkReferences": {}
}