{
  "_format": "hh-sol-artifact-1",
  "contractName": "OpenSurveyRewardVault",
  "sourceName": "contracts/Vault.sol",
  "abi": [
    {
      "inputs": [
        {
          "internalType": "uint256",
          "name": "_surveyId",
          "type": "uint256"
        },
        {
          "internalType": "address",
          "name": "_factory",
          "type": "address"
        }
      ],
      "stateMutability": "nonpayable",
      "type": "constructor"
    },
    {
      "inputs": [],
      "name": "AlreadyClaimed",
      "type": "error"
    },
    {
      "inputs": [],
      "name": "AmountMustBeGreaterThanZero",
      "type": "error"
    },
    {
      "inputs": [],
      "name": "InvalidFactory",
      "type": "error"
    },
    {
      "inputs": [],
      "name": "InvalidProof",
      "type": "error"
    },
    {
      "inputs": [],
      "name": "NotFactory",
      "type": "error"
    },
    {
      "inputs": [
        {
          "internalType": "address",
          "name": "token",
          "type": "address"
        }
      ],
      "name": "SafeERC20FailedOperation",
      "type": "error"
    },
    {
      "anonymous": false,
      "inputs": [
        {
          "indexed": true,
          "internalType": "address",
          "name": "user",
          "type": "address"
        },
        {
          "indexed": true,
          "internalType": "address",
          "name": "token",
          "type": "address"
        },
        {
          "indexed": false,
          "internalType": "uint256",
          "name": "amount",
          "type": "uint256"
        }
      ],
      "name": "Claimed",
      "type": "event"
    },
    {
      "anonymous": false,
      "inputs": [
        {
          "indexed": true,
          "internalType": "address",
          "name": "from",
          "type": "address"
        },
        {
          "indexed": true,
          "internalType": "address",
          "name": "token",
          "type": "address"
        },
        {
          "indexed": false,
          "internalType": "uint256",
          "name": "amount",
          "type": "uint256"
        }
      ],
      "name": "Funded",
      "type": "event"
    },
    {
      "anonymous": false,
      "inputs": [
        {
          "indexed": true,
          "internalType": "address",
          "name": "token",
          "type": "address"
        },
        {
          "indexed": true,
          "internalType": "bytes32",
          "name": "newRoot",
          "type": "bytes32"
        }
      ],
      "name": "MerkleRootUpdated",
      "type": "event"
    },
    {
      "inputs": [
        {
          "internalType": "address",
          "name": "token",
          "type": "address"
        },
        {
          "internalType": "uint256",
          "name": "totalEntitled",
          "type": "uint256"
        },
        {
          "internalType": "bytes32[]",
          "name": "proof",
          "type": "bytes32[]"
        }
      ],
      "name": "claim",
      "outputs": [],
      "stateMutability": "nonpayable",
      "type": "function"
    },
    {
      "inputs": [
        {
          "internalType": "address",
          "name": "",
          "type": "address"
        },
        {
          "internalType": "address",
          "name": "",
          "type": "address"
        }
      ],
      "name": "claimedPerToken",
      "outputs": [
        {
          "internalType": "uint256",
          "name": "",
          "type": "uint256"
        }
      ],
      "stateMutability": "view",
      "type": "function"
    },
    {
      "inputs": [],
      "name": "factory",
      "outputs": [
        {
          "internalType": "address",
          "name": "",
          "type": "address"
        }
      ],
      "stateMutability": "view",
      "type": "function"
    },
    {
      "inputs": [
        {
          "internalType": "address",
          "name": "token",
          "type": "address"
        },
        {
          "internalType": "uint256",
          "name": "amount",
          "type": "uint256"
        }
      ],
      "name": "fund",
      "outputs": [],
      "stateMutability": "nonpayable",
      "type": "function"
    },
    {
      "inputs": [
        {
          "internalType": "address",
          "name": "user",
          "type": "address"
        },
        {
          "internalType": "address",
          "name": "token",
          "type": "address"
        },
        {
          "internalType": "uint256",
          "name": "totalEntitled",
          "type": "uint256"
        }
      ],
      "name": "getClaimable",
      "outputs": [
        {
          "internalType": "uint256",
          "name": "",
          "type": "uint256"
        }
      ],
      "stateMutability": "view",
      "type": "function"
    },
    {
      "inputs": [
        {
          "internalType": "address",
          "name": "",
          "type": "address"
        }
      ],
      "name": "merkleRootPerToken",
      "outputs": [
        {
          "internalType": "bytes32",
          "name": "",
          "type": "bytes32"
        }
      ],
      "stateMutability": "view",
      "type": "function"
    },
    {
      "inputs": [
        {
          "internalType": "address",
          "name": "token",
          "type": "address"
        },
        {
          "internalType": "bytes32",
          "name": "newRoot",
          "type": "bytes32"
        }
      ],
      "name": "setMerkleRoot",
      "outputs": [],
      "stateMutability": "nonpayable",
      "type": "function"
    },
    {
      "inputs": [],
      "name": "surveyId",
      "outputs": [
        {
          "internalType": "uint256",
          "name": "",
          "type": "uint256"
        }
      ],
      "stateMutability": "view",
      "type": "function"
    }
  ],
  "bytecode": "0x60c060405234801561001057600080fd5b506040516108ab3803806108ab83398101604081905261002f9161006d565b6001600160a01b03811661005657604051637a44db9560e01b815260040160405180910390fd5b60a0919091526001600160a01b03166080526100aa565b6000806040838503121561008057600080fd5b825160208401519092506001600160a01b038116811461009f57600080fd5b809150509250929050565b60805160a0516107d66100d56000396000609201526000818161013f01526103a701526107d66000f3fe608060405234801561001057600080fd5b50600436106100885760003560e01c8063a65cc5591161005b578063a65cc5591461011a578063c45a01551461013a578063f2e0bf1e14610179578063fc42de481461018c57600080fd5b8063236b06911461008d5780632f801284146100c75780633d13f874146100f25780637b1837de14610107575b600080fd5b6100b47f000000000000000000000000000000000000000000000000000000000000000081565b6040519081526020015b60405180910390f35b6100b46100d5366004610627565b600160209081526000928352604080842090915290825290205481565b61010561010036600461065a565b61019f565b005b6101056101153660046106e7565b610322565b6100b4610128366004610711565b60006020819052908152604090205481565b6101617f000000000000000000000000000000000000000000000000000000000000000081565b6040516001600160a01b0390911681526020016100be565b6101056101873660046106e7565b61039c565b6100b461019a36600461072c565b61042c565b60408051336020820181905291810185905260009060600160405160208183030381529060405280519060200120905061022384848080602002602001604051908101604052809392919081815260200183836020028082843760009201829052506001600160a01b038c1681526020819052604090205492508591506104669050565b610240576040516309bde33960e01b815260040160405180910390fd5b6001600160a01b038083166000908152600160209081526040808320938a168352929052205480861161028657604051630c8d9eab60e31b815260040160405180910390fd5b60006102928288610769565b6001600160a01b038086166000908152600160209081526040808320938d168084529390915290208990559091506102cb90858361047c565b876001600160a01b0316846001600160a01b03167ff7a40077ff7a04c7e61f6f26fb13774259ddf1b6bce9ecf26a8276cdd39926838360405161031091815260200190565b60405180910390a35050505050505050565b8060000361034357604051635e85ae7360e01b815260040160405180910390fd5b6103586001600160a01b0383163330846104e0565b6040518181526001600160a01b0383169033907f3b5083eec1a1116c56de5d6841cff8efc6a0aec9850e836ec509d6ce024ea5619060200160405180910390a35050565b336001600160a01b037f000000000000000000000000000000000000000000000000000000000000000016146103e557604051631966391b60e11b815260040160405180910390fd5b6001600160a01b038216600081815260208190526040808220849055518392917f2d3b238aa223af835b06f5ddeb56c45951f7cf4a29ab728434765ef33cb7598f91a35050565b6001600160a01b03808416600090815260016020908152604080832093861683529290529081205461045e9083610769565b949350505050565b600082610473858461051f565b14949350505050565b6040516001600160a01b038381166024830152604482018390526104db91859182169063a9059cbb906064015b604051602081830303815290604052915060e01b6020820180516001600160e01b038381831617835250505050610564565b505050565b6040516001600160a01b0384811660248301528381166044830152606482018390526105199186918216906323b872dd906084016104a9565b50505050565b600081815b845181101561055a57610550828683815181106105435761054361078a565b60200260200101516105d9565b9150600101610524565b5090505b92915050565b600080602060008451602086016000885af180610587576040513d6000823e3d81fd5b50506000513d9150811561059f5780600114156105ac565b6001600160a01b0384163b155b1561051957604051635274afe760e01b81526001600160a01b038516600482015260240160405180910390fd5b60008183106105f5576000828152602084905260409020610604565b60008381526020839052604090205b9392505050565b80356001600160a01b038116811461062257600080fd5b919050565b6000806040838503121561063a57600080fd5b6106438361060b565b91506106516020840161060b565b90509250929050565b6000806000806060858703121561067057600080fd5b6106798561060b565b935060208501359250604085013567ffffffffffffffff81111561069c57600080fd5b8501601f810187136106ad57600080fd5b803567ffffffffffffffff8111156106c457600080fd5b8760208260051b84010111156106d957600080fd5b949793965060200194505050565b600080604083850312156106fa57600080fd5b6107038361060b565b946020939093013593505050565b60006020828403121561072357600080fd5b6106048261060b565b60008060006060848603121561074157600080fd5b61074a8461060b565b92506107586020850161060b565b929592945050506040919091013590565b8181038181111561055e57634e487b7160e01b600052601160045260246000fd5b634e487b7160e01b600052603260045260246000fdfea26469706673582212202825091cb9f6897eb20b890166d9bb249fc4e172e61a06a4c8f106e4724761a464736f6c634300081c0033",
  "linkReferences": {},
  "deployedLinkReferences": {}
}